{
	"data": {
		"bytecode": {
			"linkReferences": {},
			"object": "608060405234801561001057600080fd5b5061073e806100206000396000f3fe608060405234801561001057600080fd5b50600436106100365760003560e01c80636f2be7281461003b578063e2179b8e14610057575b600080fd5b6100556004803603810190610050919061042a565b610077565b005b61005f61007c565b60405161006e939291906106ca565b60405180910390f35b505050565b610084610093565b61008c6100b4565b6000909192565b60405180606001604052806000815260200160608152602001606081525090565b604051806040016040528060008152602001600081525090565b6000604051905090565b600080fd5b600080fd5b600080fd5b6000601f19601f8301169050919050565b7f4e487b7100000000000000000000000000000000000000000000000000000000600052604160045260246000fd5b610130826100e7565b810181811067ffffffffffffffff8211171561014f5761014e6100f8565b5b80604052505050565b60006101626100ce565b905061016e8282610127565b919050565b600080fd5b6000819050919050565b61018b81610178565b811461019657600080fd5b50565b6000813590506101a881610182565b92915050565b600080fd5b600067ffffffffffffffff8211156101ce576101cd6100f8565b5b602082029050602081019050919050565b600080fd5b60006101f76101f2846101b3565b610158565b9050808382526020820190506020840283018581111561021a576102196101df565b5b835b81811015610243578061022f8882610199565b84526020840193505060208101905061021c565b5050509392505050565b600082601f830112610262576102616101ae565b5b81356102728482602086016101e4565b91505092915050565b600067ffffffffffffffff821115610296576102956100f8565b5b602082029050602081019050919050565b6000604082840312156102bd576102bc6100e2565b5b6102c76040610158565b905060006102d784828501610199565b60008301525060206102eb84828501610199565b60208301525092915050565b600061030a6103058461027b565b610158565b9050808382526020820190506040840283018581111561032d5761032c6101df565b5b835b81811015610356578061034288826102a7565b84526020840193505060408101905061032f565b5050509392505050565b600082601f830112610375576103746101ae565b5b81356103858482602086016102f7565b91505092915050565b6000606082840312156103a4576103a36100e2565b5b6103ae6060610158565b905060006103be84828501610199565b600083015250602082013567ffffffffffffffff8111156103e2576103e1610173565b5b6103ee8482850161024d565b602083015250604082013567ffffffffffffffff81111561041257610411610173565b5b61041e84828501610360565b60408301525092915050565b600080600060808486031215610443576104426100d8565b5b600084013567ffffffffffffffff811115610461576104606100dd565b5b61046d8682870161038e565b935050602061047e868287016102a7565b925050606061048f86828701610199565b9150509250925092565b6104a281610178565b82525050565b600081519050919050565b600082825260208201905092915050565b6000819050602082019050919050565b60006104e08383610499565b60208301905092915050565b6000602082019050919050565b6000610504826104a8565b61050e81856104b3565b9350610519836104c4565b8060005b8381101561054a57815161053188826104d4565b975061053c836104ec565b92505060018101905061051d565b5085935050505092915050565b600081519050919050565b600082825260208201905092915050565b6000819050602082019050919050565b6040820160008201516105996000850182610499565b5060208201516105ac6020850182610499565b50505050565b60006105be8383610583565b60408301905092915050565b6000602082019050919050565b60006105e282610557565b6105ec8185610562565b93506105f783610573565b8060005b8381101561062857815161060f88826105b2565b975061061a836105ca565b9250506001810190506105fb565b5085935050505092915050565b600060608301600083015161064d6000860182610499565b506020830151848203602086015261066582826104f9565b9150506040830151848203604086015261067f82826105d7565b9150508091505092915050565b6040820160008201516106a26000850182610499565b5060208201516106b56020850182610499565b50505050565b6106c481610178565b82525050565b600060808201905081810360008301526106e48186610635565b90506106f3602083018561068c565b61070060608301846106bb565b94935050505056fea26469706673582212208668136215b0f04af732ce455ad4c7ef1df140be9bdd91f7131a1bdd206d6c8f64736f6c634300080a0033",
			"opcodes": "PUSH1 0x80 PUSH1 0x40 MSTORE CALLVALUE DUP1 ISZERO PUSH2 0x10 JUMPI PUSH1 0x0 DUP1 REVERT JUMPDEST POP PUSH2 0x73E DUP1 PUSH2 0x20 PUSH1 0x0 CODECOPY PUSH1 0x0 RETURN INVALID PUSH1 0x80 PUSH1 0x40 MSTORE CALLVALUE DUP1 ISZERO PUSH2 0x10 JUMPI PUSH1 0x0 DUP1 REVERT JUMPDEST POP PUSH1 0x4 CALLDATASIZE LT PUSH2 0x36 JUMPI PUSH1 0x0 CALLDATALOAD PUSH1 0xE0 SHR DUP1 PUSH4 0x6F2BE728 EQ PUSH2 0x3B JUMPI DUP1 PUSH4 0xE2179B8E EQ PUSH2 0x57 JUMPI JUMPDEST PUSH1 0x0 DUP1 REVERT JUMPDEST PUSH2 0x55 PUSH1 0x4 DUP1 CALLDATASIZE SUB DUP2 ADD SWAP1 PUSH2 0x50 SWAP2 SWAP1 PUSH2 0x42A JUMP JUMPDEST PUSH2 0x77 JUMP JUMPDEST STOP JUMPDEST PUSH2 0x5F PUSH2 0x7C JUMP JUMPDEST PUSH1 0x40 MLOAD PUSH2 0x6E SWAP4 SWAP3 SWAP2 SWAP1 PUSH2 0x6CA JUMP JUMPDEST PUSH1 0x40 MLOAD DUP1 SWAP2 SUB SWAP1 RETURN JUMPDEST POP POP POP JUMP JUMPDEST PUSH2 0x84 PUSH2 0x93 JUMP JUMPDEST PUSH2 0x8C PUSH2 0xB4 JUMP JUMPDEST PUSH1 0x0 SWAP1 SWAP2 SWAP3 JUMP JUMPDEST PUSH1 0x40 MLOAD DUP1 PUSH1 0x60 ADD PUSH1 0x40 MSTORE DUP1 PUSH1 0x0 DUP2 MSTORE PUSH1 0x20 ADD PUSH1 0x60 DUP2 MSTORE PUSH1 0x20 ADD PUSH1 0x60 DUP2 MSTORE POP SWAP1 JUMP JUMPDEST PUSH1 0x40 MLOAD DUP1 PUSH1 0x40 ADD PUSH1 0x40 MSTORE DUP1 PUSH1 0x0 DUP2 MSTORE PUSH1 0x20 ADD PUSH1 0x0 DUP2 MSTORE POP SWAP1 JUMP JUMPDEST PUSH1 0x0 PUSH1 0x40 MLOAD SWAP1 POP SWAP1 JUMP JUMPDEST PUSH1 0x0 DUP1 REVERT JUMPDEST PUSH1 0x0 DUP1 REVERT JUMPDEST PUSH1 0x0 DUP1 REVERT JUMPDEST PUSH1 0x0 PUSH1 0x1F NOT PUSH1 0x1F DUP4 ADD AND SWAP1 POP SWAP2 SWAP1 POP JUMP JUMPDEST PUSH32 0x4E487B7100000000000000000000000000000000000000000000000000000000 PUSH1 0x0 MSTORE PUSH1 0x41 PUSH1 0x4 MSTORE PUSH1 0x24 PUSH1 0x0 REVERT JUMPDEST PUSH2 0x130 DUP3 PUSH2 0xE7 JUMP JUMPDEST DUP2 ADD DUP2 DUP2 LT PUSH8 0xFFFFFFFFFFFFFFFF DUP3 GT OR ISZERO PUSH2 0x14F JUMPI PUSH2 0x14E PUSH2 0xF8 JUMP JUMPDEST JUMPDEST DUP1 PUSH1 0x40 MSTORE POP POP POP JUMP JUMPDEST PUSH1 0x0 PUSH2 0x162 PUSH2 0xCE JUMP JUMPDEST SWAP1 POP PUSH2 0x16E DUP3 DUP3 PUSH2 0x127 JUMP JUMPDEST SWAP2 SWAP1 POP JUMP JUMPDEST PUSH1 0x0 DUP1 REVERT JUMPDEST PUSH1 0x0 DUP2 SWAP1 POP SWAP2 SWAP1 POP JUMP JUMPDEST PUSH2 0x18B DUP2 PUSH2 0x178 JUMP JUMPDEST DUP2 EQ PUSH2 0x196 JUMPI PUSH1 0x0 DUP1 REVERT JUMPDEST POP JUMP JUMPDEST PUSH1 0x0 DUP2 CALLDATALOAD SWAP1 POP PUSH2 0x1A8 DUP2 PUSH2 0x182 JUMP JUMPDEST SWAP3 SWAP2 POP POP JUMP JUMPDEST PUSH1 0x0 DUP1 REVERT JUMPDEST PUSH1 0x0 PUSH8 0xFFFFFFFFFFFFFFFF DUP3 GT ISZERO PUSH2 0x1CE JUMPI PUSH2 0x1CD PUSH2 0xF8 JUMP JUMPDEST JUMPDEST PUSH1 0x20 DUP3 MUL SWAP1 POP PUSH1 0x20 DUP2 ADD SWAP1 POP SWAP2 SWAP1 POP JUMP JUMPDEST PUSH1 0x0 DUP1 REVERT JUMPDEST PUSH1 0x0 PUSH2 0x1F7 PUSH2 0x1F2 DUP5 PUSH2 0x1B3 JUMP JUMPDEST PUSH2 0x158 JUMP JUMPDEST SWAP1 POP DUP1 DUP4 DUP3 MSTORE PUSH1 0x20 DUP3 ADD SWAP1 POP PUSH1 0x20 DUP5 MUL DUP4 ADD DUP6 DUP2 GT ISZERO PUSH2 0x21A JUMPI PUSH2 0x219 PUSH2 0x1DF JUMP JUMPDEST JUMPDEST DUP4 JUMPDEST DUP2 DUP2 LT ISZERO PUSH2 0x243 JUMPI DUP1 PUSH2 0x22F DUP9 DUP3 PUSH2 0x199 JUMP JUMPDEST DUP5 MSTORE PUSH1 0x20 DUP5 ADD SWAP4 POP POP PUSH1 0x20 DUP2 ADD SWAP1 POP PUSH2 0x21C JUMP JUMPDEST POP POP POP SWAP4 SWAP3 POP POP POP JUMP JUMPDEST PUSH1 0x0 DUP3 PUSH1 0x1F DUP4 ADD SLT PUSH2 0x262 JUMPI PUSH2 0x261 PUSH2 0x1AE JUMP JUMPDEST JUMPDEST DUP2 CALLDATALOAD PUSH2 0x272 DUP5 DUP3 PUSH1 0x20 DUP7 ADD PUSH2 0x1E4 JUMP JUMPDEST SWAP2 POP POP SWAP3 SWAP2 POP POP JUMP JUMPDEST PUSH1 0x0 PUSH8 0xFFFFFFFFFFFFFFFF DUP3 GT ISZERO PUSH2 0x296 JUMPI PUSH2 0x295 PUSH2 0xF8 JUMP JUMPDEST JUMPDEST PUSH1 0x20 DUP3 MUL SWAP1 POP PUSH1 0x20 DUP2 ADD SWAP1 POP SWAP2 SWAP1 POP JUMP JUMPDEST PUSH1 0x0 PUSH1 0x40 DUP3 DUP5 SUB SLT ISZERO PUSH2 0x2BD JUMPI PUSH2 0x2BC PUSH2 0xE2 JUMP JUMPDEST JUMPDEST PUSH2 0x2C7 PUSH1 0x40 PUSH2 0x158 JUMP JUMPDEST SWAP1 POP PUSH1 0x0 PUSH2 0x2D7 DUP5 DUP3 DUP6 ADD PUSH2 0x199 JUMP JUMPDEST PUSH1 0x0 DUP4 ADD MSTORE POP PUSH1 0x20 PUSH2 0x2EB DUP5 DUP3 DUP6 ADD PUSH2 0x199 JUMP JUMPDEST PUSH1 0x20 DUP4 ADD MSTORE POP SWAP3 SWAP2 POP POP JUMP JUMPDEST PUSH1 0x0 PUSH2 0x30A PUSH2 0x305 DUP5 PUSH2 0x27B JUMP JUMPDEST PUSH2 0x158 JUMP JUMPDEST SWAP1 POP DUP1 DUP4 DUP3 MSTORE PUSH1 0x20 DUP3 ADD SWAP1 POP PUSH1 0x40 DUP5 MUL DUP4 ADD DUP6 DUP2 GT ISZERO PUSH2 0x32D JUMPI PUSH2 0x32C PUSH2 0x1DF JUMP JUMPDEST JUMPDEST DUP4 JUMPDEST DUP2 DUP2 LT ISZERO PUSH2 0x356 JUMPI DUP1 PUSH2 0x342 DUP9 DUP3 PUSH2 0x2A7 JUMP JUMPDEST DUP5 MSTORE PUSH1 0x20 DUP5 ADD SWAP4 POP POP PUSH1 0x40 DUP2 ADD SWAP1 POP PUSH2 0x32F JUMP JUMPDEST POP POP POP SWAP4 SWAP3 POP POP POP JUMP JUMPDEST PUSH1 0x0 DUP3 PUSH1 0x1F DUP4 ADD SLT PUSH2 0x375 JUMPI PUSH2 0x374 PUSH2 0x1AE JUMP JUMPDEST JUMPDEST DUP2 CALLDATALOAD PUSH2 0x385 DUP5 DUP3 PUSH1 0x20 DUP7 ADD PUSH2 0x2F7 JUMP JUMPDEST SWAP2 POP POP SWAP3 SWAP2 POP POP JUMP JUMPDEST PUSH1 0x0 PUSH1 0x60 DUP3 DUP5 SUB SLT ISZERO PUSH2 0x3A4 JUMPI PUSH2 0x3A3 PUSH2 0xE2 JUMP JUMPDEST JUMPDEST PUSH2 0x3AE PUSH1 0x60 PUSH2 0x158 JUMP JUMPDEST SWAP1 POP PUSH1 0x0 PUSH2 0x3BE DUP5 DUP3 DUP6 ADD PUSH2 0x199 JUMP JUMPDEST PUSH1 0x0 DUP4 ADD MSTORE POP PUSH1 0x20 DUP3 ADD CALLDATALOAD PUSH8 0xFFFFFFFFFFFFFFFF DUP2 GT ISZERO PUSH2 0x3E2 JUMPI PUSH2 0x3E1 PUSH2 0x173 JUMP JUMPDEST JUMPDEST PUSH2 0x3EE DUP5 DUP3 DUP6 ADD PUSH2 0x24D JUMP JUMPDEST PUSH1 0x20 DUP4 ADD MSTORE POP PUSH1 0x40 DUP3 ADD CALLDATALOAD PUSH8 0xFFFFFFFFFFFFFFFF DUP2 GT ISZERO PUSH2 0x412 JUMPI PUSH2 0x411 PUSH2 0x173 JUMP JUMPDEST JUMPDEST PUSH2 0x41E DUP5 DUP3 DUP6 ADD PUSH2 0x360 JUMP JUMPDEST PUSH1 0x40 DUP4 ADD MSTORE POP SWAP3 SWAP2 POP POP JUMP JUMPDEST PUSH1 0x0 DUP1 PUSH1 0x0 PUSH1 0x80 DUP5 DUP7 SUB SLT ISZERO PUSH2 0x443 JUMPI PUSH2 0x442 PUSH2 0xD8 JUMP JUMPDEST JUMPDEST PUSH1 0x0 DUP5 ADD CALLDATALOAD PUSH8 0xFFFFFFFFFFFFFFFF DUP2 GT ISZERO PUSH2 0x461 JUMPI PUSH2 0x460 PUSH2 0xDD JUMP JUMPDEST JUMPDEST PUSH2 0x46D DUP7 DUP3 DUP8 ADD PUSH2 0x38E JUMP JUMPDEST SWAP4 POP POP PUSH1 0x20 PUSH2 0x47E DUP7 DUP3 DUP8 ADD PUSH2 0x2A7 JUMP JUMPDEST SWAP3 POP POP PUSH1 0x60 PUSH2 0x48F DUP7 DUP3 DUP8 ADD PUSH2 0x199 JUMP JUMPDEST SWAP2 POP POP SWAP3 POP SWAP3 POP SWAP3 JUMP JUMPDEST PUSH2 0x4A2 DUP2 PUSH2 0x178 JUMP JUMPDEST DUP3 MSTORE POP POP JUMP JUMPDEST PUSH1 0x0 DUP2 MLOAD SWAP1 POP SWAP2 SWAP1 POP JUMP JUMPDEST PUSH1 0x0 DUP3 DUP3 MSTORE PUSH1 0x20 DUP3 ADD SWAP1 POP SWAP3 SWAP2 POP POP JUMP JUMPDEST PUSH1 0x0 DUP2 SWAP1 POP PUSH1 0x20 DUP3 ADD SWAP1 POP SWAP2 SWAP1 POP JUMP JUMPDEST PUSH1 0x0 PUSH2 0x4E0 DUP4 DUP4 PUSH2 0x499 JUMP JUMPDEST PUSH1 0x20 DUP4 ADD SWAP1 POP SWAP3 SWAP2 POP POP JUMP JUMPDEST PUSH1 0x0 PUSH1 0x20 DUP3 ADD SWAP1 POP SWAP2 SWAP1 POP JUMP JUMPDEST PUSH1 0x0 PUSH2 0x504 DUP3 PUSH2 0x4A8 JUMP JUMPDEST PUSH2 0x50E DUP2 DUP6 PUSH2 0x4B3 JUMP JUMPDEST SWAP4 POP PUSH2 0x519 DUP4 PUSH2 0x4C4 JUMP JUMPDEST DUP1 PUSH1 0x0 JUMPDEST DUP4 DUP2 LT ISZERO PUSH2 0x54A JUMPI DUP2 MLOAD PUSH2 0x531 DUP9 DUP3 PUSH2 0x4D4 JUMP JUMPDEST SWAP8 POP PUSH2 0x53C DUP4 PUSH2 0x4EC JUMP JUMPDEST SWAP3 POP POP PUSH1 0x1 DUP2 ADD SWAP1 POP PUSH2 0x51D JUMP JUMPDEST POP DUP6 SWAP4 POP POP POP POP SWAP3 SWAP2 POP POP JUMP JUMPDEST PUSH1 0x0 DUP2 MLOAD SWAP1 POP SWAP2 SWAP1 POP JUMP JUMPDEST PUSH1 0x0 DUP3 DUP3 MSTORE PUSH1 0x20 DUP3 ADD SWAP1 POP SWAP3 SWAP2 POP POP JUMP JUMPDEST PUSH1 0x0 DUP2 SWAP1 POP PUSH1 0x20 DUP3 ADD SWAP1 POP SWAP2 SWAP1 POP JUMP JUMPDEST PUSH1 0x40 DUP3 ADD PUSH1 0x0 DUP3 ADD MLOAD PUSH2 0x599 PUSH1 0x0 DUP6 ADD DUP3 PUSH2 0x499 JUMP JUMPDEST POP PUSH1 0x20 DUP3 ADD MLOAD PUSH2 0x5AC PUSH1 0x20 DUP6 ADD DUP3 PUSH2 0x499 JUMP JUMPDEST POP POP POP POP JUMP JUMPDEST PUSH1 0x0 PUSH2 0x5BE DUP4 DUP4 PUSH2 0x583 JUMP JUMPDEST PUSH1 0x40 DUP4 ADD SWAP1 POP SWAP3 SWAP2 POP POP JUMP JUMPDEST PUSH1 0x0 PUSH1 0x20 DUP3 ADD SWAP1 POP SWAP2 SWAP1 POP JUMP JUMPDEST PUSH1 0x0 PUSH2 0x5E2 DUP3 PUSH2 0x557 JUMP JUMPDEST PUSH2 0x5EC DUP2 DUP6 PUSH2 0x562 JUMP JUMPDEST SWAP4 POP PUSH2 0x5F7 DUP4 PUSH2 0x573 JUMP JUMPDEST DUP1 PUSH1 0x0 JUMPDEST DUP4 DUP2 LT ISZERO PUSH2 0x628 JUMPI DUP2 MLOAD PUSH2 0x60F DUP9 DUP3 PUSH2 0x5B2 JUMP JUMPDEST SWAP8 POP PUSH2 0x61A DUP4 PUSH2 0x5CA JUMP JUMPDEST SWAP3 POP POP PUSH1 0x1 DUP2 ADD SWAP1 POP PUSH2 0x5FB JUMP JUMPDEST POP DUP6 SWAP4 POP POP POP POP SWAP3 SWAP2 POP POP JUMP JUMPDEST PUSH1 0x0 PUSH1 0x60 DUP4 ADD PUSH1 0x0 DUP4 ADD MLOAD PUSH2 0x64D PUSH1 0x0 DUP7 ADD DUP3 PUSH2 0x499 JUMP JUMPDEST POP PUSH1 0x20 DUP4 ADD MLOAD DUP5 DUP3 SUB PUSH1 0x20 DUP7 ADD MSTORE PUSH2 0x665 DUP3 DUP3 PUSH2 0x4F9 JUMP JUMPDEST SWAP2 POP POP PUSH1 0x40 DUP4 ADD MLOAD DUP5 DUP3 SUB PUSH1 0x40 DUP7 ADD MSTORE PUSH2 0x67F DUP3 DUP3 PUSH2 0x5D7 JUMP JUMPDEST SWAP2 POP POP DUP1 SWAP2 POP POP SWAP3 SWAP2 POP POP JUMP JUMPDEST PUSH1 0x40 DUP3 ADD PUSH1 0x0 DUP3 ADD MLOAD PUSH2 0x6A2 PUSH1 0x0 DUP6 ADD DUP3 PUSH2 0x499 JUMP JUMPDEST POP PUSH1 0x20 DUP3 ADD MLOAD PUSH2 0x6B5 PUSH1 0x20 DUP6 ADD DUP3 PUSH2 0x499 JUMP JUMPDEST POP POP POP POP JUMP JUMPDEST PUSH2 0x6C4 DUP2 PUSH2 0x178 JUMP JUMPDEST DUP3 MSTORE POP POP JUMP JUMPDEST PUSH1 0x0 PUSH1 0x80 DUP3 ADD SWAP1 POP DUP2 DUP2 SUB PUSH1 0x0 DUP4 ADD MSTORE PUSH2 0x6E4 DUP2 DUP7 PUSH2 0x635 JUMP JUMPDEST SWAP1 POP PUSH2 0x6F3 PUSH1 0x20 DUP4 ADD DUP6 PUSH2 0x68C JUMP JUMPDEST PUSH2 0x700 PUSH1 0x60 DUP4 ADD DUP5 PUSH2 0x6BB JUMP JUMPDEST SWAP5 SWAP4 POP POP POP POP JUMP INVALID LOG2 PUSH5 0x6970667358 0x22 SLT KECCAK256 DUP7 PUSH9 0x136215B0F04AF732CE GASLIMIT GAS 0xD4 0xC7 0xEF SAR CALL BLOCKHASH 0xBE SWAP12 0xDD SWAP2 0xF7 SGT BYTE SHL 0xDD KECCAK256 PUSH14 0x6C8F64736F6C634300080A003300 "
		},
		"gasEstimates": {
			"creation": {
				"codeDepositCost": "370800",
				"executionCost": "405",
				"totalCost": "371205"
			},
			"external": {
				"f((uint256,uint256[],(uint256,uint256)[]),(uint256,uint256),uint256)": "infinite",
				"g()": "infinite"
			}
		},
		"methodIdentifiers": {
			"f((uint256,uint256[],(uint256,uint256)[]),(uint256,uint256),uint256)": "6f2be728",
			"g()": "e2179b8e"
		}
	},
	"abi": [
		{
			"inputs": [
				{
					"components": [
						{
							"internalType": "uint256",
							"name": "a",
							"type": "uint256"
						},
						{
							"internalType": "uint256[]",
							"name": "b",
							"type": "uint256[]"
						},
						{
							"components": [
								{
									"internalType": "uint256",
									"name": "x",
									"type": "uint256"
								},
								{
									"internalType": "uint256",
									"name": "y",
									"type": "uint256"
								}
							],
							"internalType": "struct Test.T[]",
							"name": "c",
							"type": "tuple[]"
						}
					],
					"internalType": "struct Test.S",
					"name": "",
					"type": "tuple"
				},
				{
					"components": [
						{
							"internalType": "uint256",
							"name": "x",
							"type": "uint256"
						},
						{
							"internalType": "uint256",
							"name": "y",
							"type": "uint256"
						}
					],
					"internalType": "struct Test.T",
					"name": "",
					"type": "tuple"
				},
				{
					"internalType": "uint256",
					"name": "",
					"type": "uint256"
				}
			],
			"name": "f",
			"outputs": [],
			"stateMutability": "pure",
			"type": "function"
		},
		{
			"inputs": [],
			"name": "g",
			"outputs": [
				{
					"components": [
						{
							"internalType": "uint256",
							"name": "a",
							"type": "uint256"
						},
						{
							"internalType": "uint256[]",
							"name": "b",
							"type": "uint256[]"
						},
						{
							"components": [
								{
									"internalType": "uint256",
									"name": "x",
									"type": "uint256"
								},
								{
									"internalType": "uint256",
									"name": "y",
									"type": "uint256"
								}
							],
							"internalType": "struct Test.T[]",
							"name": "c",
							"type": "tuple[]"
						}
					],
					"internalType": "struct Test.S",
					"name": "",
					"type": "tuple"
				},
				{
					"components": [
						{
							"internalType": "uint256",
							"name": "x",
							"type": "uint256"
						},
						{
							"internalType": "uint256",
							"name": "y",
							"type": "uint256"
						}
					],
					"internalType": "struct Test.T",
					"name": "",
					"type": "tuple"
				},
				{
					"internalType": "uint256",
					"name": "",
					"type": "uint256"
				}
			],
			"stateMutability": "pure",
			"type": "function"
		}
	]
}